:020000040800F2
:10000000002800207D1800089D160008A31600088F
:10001000A9160008AF160008B51600080000000079
:10002000000000000000000000000000BB160008F7
:10003000C716000800000000D3160008DF160008ED
:10004000C5180008C5180008C5180008C51800081C
:10005000C5180008C5180008C5180008C51800080C
:10006000C5180008C5180008C5180008C5180008FC
:10007000C5180008C5180008C5180008C5180008EC
:10008000C5180008C5180008C5180008C5180008DC
:10009000C5180008C5180008C5180008C5180008CC
:1000A000C5180008C5180008C5180008C5180008BC
:1000B000ED160008C518000800000000C51800086B
:1000C000C51800080000000000000000C518000866
:1000D00000000000C5180008C51800080000000056
:1000E000C5180008C5180008C51800080000000061
:1000F0000000000000000000000000000000000000
:0C01000000000000000000005FF808F1A3
:10010C0010B5054C237833B9044B13B10448AFF345
:10011C0000800123237010BDF400002000000000BB
:10012C00F42E000808B5034B1BB103490348AFF389
:10013C00008008BD00000000F8000020F42E00082C
:10014C0080B483B000AF7860094A7B6852F82330E2
:10015C00012B06D1064A7B68002142F823100123AB
:10016C0000E0002318460C37BD4680BC704700BF2A
:10017C001001002080B582B000AF00237B607CE0D2
:10018C00424A7B6852F8232041497B6841F823207E
:10019C00404A7B6852F823203C497B6841F8232075
:1001AC003D4A7B6852F823203C497B6831F8133078
:1001BC001946104601F06CFE03461946354A7B6819
:1001CC0042F82310314A7B6852F8232031497B686E
:1001DC0051F823309A424DD12C4A7B6852F8232097
:1001EC002B497B6851F823309A4243D1284A7B68CB
:1001FC0052F823202A497B6851F823309A4219D0AF
:10020C00234A7B6852F8232025497B6841F8232038
:10021C001F4A7B6852F82330012B2BD1214A7B6873
:10022C00012142F82310204A7B684FF4FA7142F8FE
:10023C0023101FE01C4A7B6852F823305A1E1A49BF
:10024C007B6841F82320184A7B6852F82330002B36
:10025C0010D1154A7B684FF4FA7142F823100C4AFE
:10026C007B6852F82330012B04D1104A7B680121A2
:10027C0042F823107B6801337B607B68022B7FF78D
:10028C007FAF00BF00BF0837BD4680BD0C0000200B
:10029C0018000020000000203C0000204800002036
:1002AC002400002010010020300000201C01002040
:1002BC0080B400AF074B1B68074A1360074B1B68E1
:1002CC00074A1360074B1B68074A136000BFBD4603
:1002DC0080BC704758000020640000205C000020A7
:1002EC0068000020600000206C00002080B400AF8B
:1002FC001C4B1B681C4A13601B4B1A681B4B1B685E
:10030C00D31A1B4A13601A4B1A681A4B1B689A4271
:10031C0004DD174B1B68174A13601EE0144B1A6858
:10032C00144B1B689A4218DA0F4B1A68114B1B6856
:10033C00D31A114A1360104B1A680C4B1B689A4263
:10034C0004DD0D4B1B68094A136006E0094B1A6863
:10035C00064B1B681344044A136000BFBD4680BCA7
:10036C00704700BF64000020580000205C00002093
:10037C0058010020600000206001002080B400AF14
:10038C00134B1B68134A1360134B1A68114B1B68F1
:10039C00D31A124A1360114B1A68114B1B689A42FC
:1003AC0004DD0E4B1B680E4A13600CE00B4B1A68F5
:1003BC000B4B1B689A4206DA064B1A68084B1B68F3
:1003CC001344054A136000BFBD4680BC704700BF94
:1003DC00680000205C00002058000020580100201C
:1003EC006000002080B400AF134B1B68134A1360ED
:1003FC00134B1A68114B1B68D31A124A1360114B1A
:10040C001A68114B1B689A4204DD0E4B1B680E4A8E
:10041C0013600CE00B4B1A680B4B1B689A4206DA04
:10042C00094B1A68054B1B681344054A136000BF3F
:10043C00BD4680BC704700BF6C00002060000020EF
:10044C0058000020600100205C00002080B500AF47
:10045C00AF4B1B680A3B0D2B00F27B8301A252F8B9
:10046C0023F000BFA9040008ED040008A70500084C
:10047C0061060008410700085F0B00085F0B0008CD
:10048C005F0B00085F0B00085F0B00085F0B000898
:10049C00FB0700080F0900084D0A00089D4B0122BC
:1004AC001A609B4B0B221A609B4B1B684FF47A72A1
:1004BC0002FB03F31946012001F02AF801F020F9A0
:1004CC00964B00221A60FA21032001F021F84FF418
:1004DC007A71042001F01CF80020FFF731FE47E38D
:1004EC000021002001F036F90221012001F032F93F
:1004FC008B4B00221A608A4B02225A60042001F0B6
:10050C0027F80346012B0ED1864B1B68013B854A0D
:10051C001360854B1B68013B834A13604FF47A715F
:10052C00042000F0F5FF012001F012F80346012B26
:10053C0011D100F04BFD764B0C221A607B4B1B68E3
:10054C004FF47A7202FB03F31946012000F0E0FF2E
:10055C00724B00221A600020FFF7F2FD0346012BBC
:10056C0040F0F98201F0CCF86A4B02221A60684B19
:10057C0015221A60FA21002000F0CAFF41F28831DE
:10058C00022000F0C5FF654B00221A600120FFF726
:10059C00D7FD0220FFF7D4FDDDE20021002001F0A1
:1005AC00D9F80121012001F0D5F85D4B00221A6029
:1005BC005B4B01225A60042000F0CAFF0346012B5A
:1005CC000ED1584B1B68013B564A1360584B1B68A5
:1005DC00013B574A13604FF47A71042000F098FFE6
:1005EC00012000F0B5FF0346012B11D100F0EEFC09
:1005FC00474B0D221A60484B1B684FF47A7202FB72
:10060C0003F31946012000F083FF444B00221A60CB
:10061C000020FFF795FD0346012B40F09E8201F070
:10062C006FF83C4B02221A60394B15221A60FA21E2
:10063C00002000F06DFF41F28831022000F068FFCD
:10064C00364B00221A600120FFF77AFD0220FFF7DB
:10065C0077FD82E20221002001F07CF800210120CC
:10066C0001F078F82E4B02221A602D4B00225A60B2
:10067C00042000F06DFF0346012B0ED12A4B1B68A2
:10068C00013B294A1360274B1B68013B254A136029
:10069C004FF47A71042000F03BFF012000F058FF6A
:1006AC000346012B11D100F091FC194B0E221A605C
:1006BC001E4B1B684FF47A7202FB03F319460120A0
:1006CC0000F026FF154B00221A600020FFF738FDC2
:1006DC000346012B40F0438201F012F80D4B04222B
:1006EC001A600B4B17221A60FA21002000F010FF41
:1006FC0041F28831022000F00BFF084B00221A60F7
:10070C000120FFF71DFD0220FFF71AFD27E200BFB5
:10071C005000002054000020600000202801002020
:10072C00A8000020B0000020B80000205C000020D1
:10073C00B40000200121002001F00CF80021012060
:10074C0001F008F8B44B01221A60B34B00225A6036
:10075C00042000F0FDFE0346012B0ED1AF4B1B68AD
:10076C00013BAE4A1360AE4B1B68013BAC4A1360B5
:10077C004FF47A71042000F0CBFE012000F0E8FE6B
:10078C000346012B11D100F021FCA64B0B221A6061
:10079C00A54B1B684FF47A7202FB03F31946012038
:1007AC0000F0B6FEA14B00221A600020FFF7C8FC37
:1007BC000346012B40F0D58100F0A2FF9C4B032295
:1007CC001A60984B16221A60FA21002000F0A0FE45
:1007DC0041F28831022000F09BFE944B00221A60FB
:1007EC000120FFF7ADFC0220FFF7AAFCB9E10020C5
:1007FC0000F0AEFE0346012B06D1002001F012F8EA
:10080C00FA21002000F084FE022000F0A1FE034635
:10081C00012B19D100F004FC4FF47A71042000F084
:10082C0077FE834B01221A607E4B0B221A607E4BA3
:10083C001B684FF47A7202FB03F31946012000F097
:10084C0067FE7A4B00221A600020FFF779FC034602
:10085C00012B19D100F054FF754B03221A60714B18
:10086C0016221A60FA21002000F052FE41F2883163
:10087C00022000F04DFE6D4B00221A600120FFF7A4
:10088C005FFC0220FFF75CFC0120FFF759FC0346DC
:10089C00012B10D1674B1B680133664A1360654B03
:1008AC001B68632B02DD634B05221A6041F2883111
:1008BC00022000F02DFE0220FFF742FC0346012B24
:1008CC0040F05181FFF712FDFFF7F2FC00F0A8FB9E
:1008DC004FF47A71042000F01BFE554B01221A6074
:1008EC00504B0B221A60504B1B684FF47A7202FB70
:1008FC0003F31946012000F00BFE4C4B00221A604A
:10090C0031E1002000F024FE0346012B06D101202A
:10091C0000F088FFFA21002000F0FAFD022000F020
:10092C0017FE0346012B19D100F07AFB4FF47A71B4
:10093C00042000F0EDFD3E4B01221A60394B0E22D3
:10094C001A603D4B1B684FF47A7202FB03F3194695
:10095C00012000F0DDFD354B00221A600020FFF76E
:10096C00EFFB0346012B19D100F0CAFE304B0422D9
:10097C001A602C4B17221A60FA21002000F0C8FDD7
:10098C0041F28831022000F0C3FD284B00221A608E
:10099C000120FFF7D5FB0220FFF7D2FB0120FFF768
:1009AC00CFFB0346012B10D1244B1B680133234A88
:1009BC001360224B1B68632B02DD204B03221A6051
:1009CC0041F28831022000F0A3FD0220FFF7B8FBB2
:1009DC000346012B40F0C980FFF7D0FCFFF768FC01
:1009EC0000F01EFB4FF47A71042000F091FD104BC7
:1009FC0001221A600B4B0E221A600F4B1B684FF42E
:100A0C007A7202FB03F31946012000F081FD074BBB
:100A1C0000221A60A9E000BFA8000020B40000204A
:100A2C00B0000020500000206000002028010020B1
:100A3C0054000020640000205C00002068000020AE
:100A4C00002000F085FD0346012B06D1022000F0AA
:100A5C00E9FEFA21002000F05BFD022000F078FD99
:100A6C000346012B19D100F0DBFA4FF47A71042004
:100A7C0000F04EFD3F4B01221A603F4B0D221A60D5
:100A8C003E4B1B684FF47A7202FB03F319460120AC
:100A9C0000F03EFD3A4B00221A600020FFF750FB9D
:100AAC000346012B19D100F02BFE324B02221A60A7
:100ABC00314B15221A60FA21002000F029FD41F279
:100ACC008831022000F024FD2D4B00221A600120F9
:100ADC00FFF736FB0220FFF733FB0120FFF730FB5B
:100AEC000346012B10D1274B1B680133254A136099
:100AFC00244B1B68632B02DD224B02221A6041F24D
:100B0C008831022000F004FD0220FFF719FB034698
:100B1C00012B2CD1FFF766FCFFF7CAFB00F080FA23
:100B2C004FF47A71042000F0F3FC124B01221A608E
:100B3C00114B0D221A60114B1B684FF47A7202FB99
:100B4C0003F31946012000F0E3FC0D4B00221A6060
:100B5C000DE000BF0CE000BF0AE000BF08E000BFE2
:100B6C0006E000BF04E000BF02E000BF00E000BFF1
:100B7C0000BF80BD54000020500000206000002009
:100B8C00280100206C00002080B500AF4FF480617C
:100B9C000E4801F0ACF94FF400610C4801F0A7F9D4
:100BAC004FF48051094801F0A2F94FF40051074865
:100BBC0001F09DF94FF48041044801F098F94FF48D
:100BCC000041024801F093F900BF80BD000C0140C8
:100BDC0080B582B000AF78607B68092B00F2808111
:100BEC0001A252F823F000BF1D0C0008650C000890
:100BFC00AD0C0008F50C00083D0D0008850D000833
:100C0C00CD0D0008150E00085D0E0008A50E00089D
:100C1C0000220121B54801F052F900220221B3480B
:100C2C0001F04DF900220421B04801F048F90022EE
:100C3C000821AE4801F043F900221021AB4801F025
:100C4C003EF900222021A94801F039F90122402166
:100C5C00A64801F034F944E101220121A34801F036
:100C6C002EF900220221A14801F029F900220421C9
:100C7C009E4801F024F9012208219C4801F01FF93B
:100C8C0001221021994801F01AF9012220219748DC
:100C9C0001F015F901224021944801F010F920E1EE
:100CAC0000220121914801F00AF9002202218F480B
:100CBC0001F005F9012204218C4801F000F9002211
:100CCC0008218A4801F0FBF800221021874801F026
:100CDC00F6F801222021854801F0F1F8002240218C
:100CEC00824801F0ECF8FCE0002201217F4801F081
:100CFC00E6F8002202217D4801F0E1F800220421EF
:100D0C007A4801F0DCF800220821784801F0D7F885
:100D1C0001221021754801F0D2F8012220217348DC
:100D2C0001F0CDF800224021704801F0C8F8D8E05D
:100D3C00012201216D4801F0C2F8002202216B480A
:100D4C0001F0BDF800220421684801F0B8F8012236
:100D5C000821664801F0B3F801221021634801F024
:100D6C00AEF800222021614801F0A9F800224021B0
:100D7C005E4801F0A4F8B4E0002201215B4801F0C8
:100D8C009EF801220221594801F099F80022042111
:100D9C00564801F094F800220821544801F08FF8CD
:100DAC0001221021514801F08AF8002220214F48DD
:100DBC0001F085F8002240214C4801F080F890E0C9
:100DCC0000220121494801F07AF80122022147480A
:100DDC0001F075F800220421444801F070F800225B
:100DEC000821424801F06BF8002210213F4801F025
:100DFC0066F8002220213D4801F061F800224021D4
:100E0C003A4801F05CF86CE000220121374801F00F
:100E1C0056F800220221354801F051F80022042135
:100E2C00324801F04CF801220821304801F047F813
:100E3C00012210212D4801F042F8012220212B48DB
:100E4C0001F03DF801224021284801F038F848E033
:100E5C0000220121254801F032F80022022123480A
:100E6C0001F02DF800220421204801F028F800227E
:100E7C0008211E4801F023F8002210211B4801F024
:100E8C001EF800222021194801F019F800224021F7
:100E9C00164801F014F824E000220121134801F057
:100EAC000EF800220221114801F009F80022042159
:100EBC000E4801F004F8002208210C4800F0FFFF56
:100ECC0001221021094800F0FAFF002220210748D6
:100EDC0000F0F5FF00224021044800F0F0FF00E094
:100EEC0000BF00BF0837BD4680BD00BF000C0140ED
:100EFC0080B582B000AF78607B68032B5ED801A20E
:100F0C0052F823F0210F00084B0F0008750F000852
:100F1C009F0F0008012202212B4800F0D0FF002275
:100F2C000421294800F0CBFF01220821264800F0BB
:100F3C00C6FF01221021244800F0C1FF3FE001222E
:100F4C000221214800F0BBFF012204211E4800F0C1
:100F5C00B6FF002208211C4800F0B1FF012210212D
:100F6C00194800F0ACFF2AE001220221164800F0DB
:100F7C00A6FF01220421144800F0A1FF0122082140
:100F8C00114800F09CFF002210210F4800F097FF41
:100F9C0015E0002202210C4800F091FF01220421EF
:100FAC00094800F08CFF01220821074800F087FF58
:100FBC0001221021044800F082FF00E000BF00BFB6
:100FCC000837BD4680BD00BF0008014080B400AFAB
:100FDC000D4B1B68002B03DC0C4B1B680A4A13607F
:100FEC000B4B1B68002B03DC0A4B1B68084A136075
:100FFC00094B1B68002B03DC084B1B68064A13606B
:10100C0000BFBD4680BC7047B000002058000020D7
:10101C00B40000205C000020B8000020600000201C
:10102C0080B400AF074B1B68074A1360074B1B6863
:10103C00074A1360074B1B68074A136000BFBD4685
:10104C0080BC704758000020B00000205C000020DD
:10105C00B400002060000020B800002080B400AF75
:10106C00274B1B68274A82FB03129210DB17D31AFB
:10107C00254A1360254B1B68224A82FB03129210EF
:10108C00DB17D31A204A5360214B1B681D4A82FB85
:10109C0003129210DB17D31A1B4A9360184B196872
:1010AC00184B83FB01239A10CB17D21A13469B00C3
:1010BC0013445B00CA1A144BDA60144B1968114BB9
:1010CC0083FB01239A10CB17D21A13469B001344AF
:1010DC005B00CA1A0C4B1A610D4B1968094B83FB48
:1010EC0001239A10CB17D21A13469B0013445B00B2
:1010FC00CA1A054B5A6100BFBD4680BC704700BF81
:10110C00B00000206766666670000020B400002006
:10111C00B800002080B400AF2A4B00221A602A4B82
:10112C001B68284A5360294B1B68294A82FB03120F
:10113C009210DB17D31A274A1360274B1B68244ADB
:10114C0082FB03129210DB17D31A224A5360234BF3
:10115C001B681F4A82FB03129210DB17D31A1D4A1D
:10116C0093601A4B19681A4B83FB01239A10CB1707
:10117C00D21A13469B0013445B00CA1A154BDA6053
:10118C00154B1968124B83FB01239A10CB17D21AFB
:10119C0013469B0013445B00CA1A0E4B1A610F4B8B
:1011AC0019680B4B83FB01239A10CB17D21A1346E9
:1011BC009B0013445B00CA1A064B5A6100BFBD4624
:1011CC0080BC7047A0000020540000206400002068
:1011DC006766666688000020680000206C000020AE
:1011EC0080B500AF3B4B1B68012B2DD13A4B1B68D4
:1011FC00012B14DC384B1B68002B03F00103B8BF28
:10120C005B421A4613465B001A44344B1B6813446A
:10121C00334A52F823301846FFF7DAFC36E02E4BEF
:10122C001B68002B03F00103B8BF5B421A46134640
:10123C005B001A44294B5B681344294A52F823304B
:10124C001846FFF7C5FC21E0234B1B68012B08DC7B
:10125C00214B1B68234A52F823301846FFF7B8FC81
:10126C0014E01D4B1B68002B03F00103B8BF5B425D
:10127C001A4613465B001A44164B1B68023B134478
:10128C00194A52F823301846FFF7A2FC124B1B6880
:10129C005A4203F0030302F0030258BF53420E4AB2
:1012AC001360032000F054F90346012B0BD10A4BB9
:1012BC001B685A1C08490A601846FFF719FEFA21E8
:1012CC00032000F025F9FFF7C9FEFFF723FF00BF4D
:1012DC0080BD00BF5400002028010020A800002081
:1012EC0070000020A00000208800002080B500AF16
:1012FC0000F0E4FA00F010F800F096F800F048F86E
:10130C00044801F039FAFFF73FFCFFF79FF8FFF7AD
:10131C0067FFFAE76401002080B590B000AF07F1D9
:10132C00180328220021184601F0D6FD3B1D00228F
:10133C001A605A609A60DA601A610223BB61012359
:10134C00BB621023FB6200237B6307F11803184672
:10135C0000F0E6FD0346002B01D000F0D3F80F237C
:10136C007B600023BB600023FB6000233B610023F8
:10137C007B613B1D0021184601F052F80346002BFF
:10138C0001D000F0BFF800BF4037BD4680BD000063
:10139C0080B586B000AF07F1080300221A605A60CE
:1013AC009A60DA603B4600221A605A601D4B4FF07F
:1013BC0080421A601B4B41F63F725A60194B002257
:1013CC009A60184B0922DA60164B00221A61154BF1
:1013DC0000229A61134801F07FF90346002B01D0DB
:1013EC0000F090F84FF48053BB6007F108031946E6
:1013FC000C4801F0FDFA0346002B01D000F082F8F6
:10140C0000233B6000237B603B461946054801F0F6
:10141C00D5FC0346002B01D000F074F800BF183740
:10142C00BD4680BD6401002080B586B000AF07F1D9
:10143C00080300221A605A609A60DA60284B9B6994
:10144C00274A43F004039361254B9B6903F0040383
:10145C007B607B68224B9B69214A43F008039361B4
:10146C001F4B9B6903F008033B603B6800221E2165
:10147C001C4800F024FD00224FF67F411A4800F072
:10148C001EFD1E23BB600123FB6000233B61022376
:10149C007B6107F108031946124800F07FFB4FF6F9
:1014AC007F43BB600123FB6000233B6102237B6114
:1014BC0007F1080319460C4800F070FB4FF4605319
:1014CC00BB600023FB6001233B6107F10803194655
:1014DC00044800F063FB00BF1837BD4680BD00BF59
:1014EC000010024000080140000C014080B582B0A1
:1014FC0000AF786000F046F8FEF73CFE00BF0837FE
:10150C00BD4680BD80B400AF72B600BFFEE70000E0
:10151C0080B483B000AF786039603B68094A82FBC5
:10152C0003129210DB17D21A07497B6841F823206B
:10153C00064A7B68002142F8231000BF0C37BD46D9
:10154C0080BC7047676666662C0100204001002055
:10155C0080B483B000AF7860094A7B6852F82330BE
:10156C00012B06D1064A7B68002142F82310012387
:10157C0000E0002318460C37BD4680BC704700BF06
:10158C004001002080B483B000AF00237B601CE0DE
:10159C00124A7B6852F82330002B13DD0F4A7B680C
:1015AC0052F823305A1E0D497B6841F823200B4A10
:1015BC007B6852F82330002B04D1094A7B68012147
:1015CC0042F823107B6801337B607B68042BDFDDE2
:1015DC0000BF00BF0C37BD4680BC70472C010020FB
:1015EC004001002080B485B000AF154B9B69144AB4
:1015FC0043F001039361124B9B6903F00103BB6041
:10160C00BB680F4BDB690E4A43F08053D3610C4B24
:10161C00DB6903F080537B607B680A4B5B68FB6083
:10162C00FB6823F0E063FB60FB6843F08063FB60C6
:10163C00044AFB68536000BF1437BD4680BC70473A
:10164C00001002400000014080B584B000AF78600B
:10165C007B681B68B3F1804F13D10C4BDB690B4AD1
:10166C0043F00103D361094BDB6903F00103FB6019
:10167C00FB68002200211C2000F059FA1C2000F00D
:10168C0072FA00BF1037BD4680BD00BF001002408B
:10169C0080B400AFFEE780B400AFFEE780B400AFCB
:1016AC00FEE780B400AFFEE780B400AFFEE780B485
:1016BC0000AF00BFBD4680BC704780B400AF00BF18
:1016CC00BD4680BC704780B400AF00BFBD4680BC37
:1016DC00704780B500AF00F037F900BF80BD000047
:1016EC0080B500AF024801F093F800BF80BD00BF89
:1016FC006401002080B400AF00BFBD4680BC7047C1
:10170C0080B500AF00224FF48061114800F0D7FB88
:10171C0000224FF400610E4800F0D1FB00224FF480
:10172C0080510B4800F0CBFB00224FF400510848CD
:10173C0000F0C5FB00224FF48041054800F0BFFBD0
:10174C0000224FF40041024800F0B9FB00BF80BDFD
:10175C00000C014080B582B000AF786039607A68C7
:10176C0013465B0013442C4A52F823007A68134644
:10177C005B001344294A32F813103B68002B0CBF52
:10178C0001230023DBB21A46254B53F82230DBB27F
:10179C001A4600F094FB7A6813465B00134401333D
:1017AC001D4A52F823007A6813465B001344013338
:1017BC001A4A32F813103B68012B0CBF012300238B
:1017CC00DBB21A46164B53F82230DBB21A4600F045
:1017DC0076FB7A6813465B00134402330E4A52F8C8
:1017EC0023007A6813465B00134402330B4A32F829
:1017FC0013103B68022B0CBF01230023DBB21A46EB
:10180C00074B53F82230DBB21A4600F058FB00BFEE
:10181C000837BD4680BD00BFC0000020D8000020A6
:10182C00E400002080B582B000AF78600E4A7B687F
:10183C0052F823200D497B6831F8133019461046B5
:10184C0000F055FB7B680333074A52F823207B6872
:10185C000333064931F813301946104600F047FBA4
:10186C0000BF0837BD4680BDC0000020D800002056
:10187C00FFF740FF0B480C490C4A002302E0D458F8
:10188C00C4500433C4188C42F9D3094A094C0023C0
:10189C0001E013600432A242FBD301F0F9FAFFF726
:1018AC0025FD704700000020F4000020382F0008B0
:1018BC00F4000020B0010020FEE7000080B500AF6E
:1018CC00084B1B68074A43F010031360032000F019
:1018DC0023F90F2000F008F8FFF784FE00231846C8
:1018EC0080BD00BF0020024080B582B000AF7860A0
:1018FC00124B1A68124B1B7819464FF47A73B3FBD0
:10190C00F1F3B2FBF3F3184600F03BF90346002B5E
:10191C0001D001230EE07B680F2B0AD800227968D6
:10192C004FF0FF3000F003F9064A7B681360002388
:10193C0000E0012318460837BD4680BDBC000020DE
:10194C00F0000020EC00002080B400AF054B1B78A9
:10195C001A46054B1B681344034A136000BFBD466F
:10196C0080BC7047F0000020AC01002080B400AFB8
:10197C00024B1B681846BD4680BC7047AC0100206A
:10198C0080B485B000AF78607B6803F00703FB6020
:10199C000C4BDB68BB60BA684FF6FF031340BB60AF
:1019AC00FB681A02BB68134343F0BF6343F4003374
:1019BC00BB60044ABB68D36000BF1437BD4680BC13
:1019CC00704700BF00ED00E080B400AF044BDB6853
:1019DC001B0A03F007031846BD4680BC704700BFC6
:1019EC0000ED00E080B483B000AF0346FB7197F9C3
:1019FC000730002B0BDBFB7903F01F02064997F92C
:101A0C0007305B09012000FA02F241F8232000BFE5
:101A1C000C37BD4680BC704700E100E080B483B059
:101A2C0000AF03463960FB7197F90730002B0ADBD6
:101A3C003B68DAB20C4997F907301201D2B20B4469
:101A4C0083F800230AE03B68DAB20849FB7903F01B
:101A5C000F03043B1201D2B20B441A7600BF0C37B1
:101A6C00BD4680BC704700BF00E100E000ED00E027
:101A7C0080B489B000AFF860B9607A60FB6803F09D
:101A8C000703FB61FB69C3F10703042B28BF042385
:101A9C00BB61FB690433062B02D9FB69033B00E0F5
:101AAC0000237B614FF0FF32BB6902FA03F3DA4388
:101ABC00BB681A407B699A404FF0FF317B6901FA91
:101ACC0003F3D9437B680B40134318462437BD46B8
:101ADC0080BC704780B582B000AF78607B68013BFA
:101AEC00B3F1807F01D301230FE00A4A7B68013BED
:101AFC0053600F214FF0FF30FFF790FF054B002292
:101B0C009A60044B07221A60002318460837BD461A
:101B1C0080BD00BF10E000E080B582B000AF7860FF
:101B2C007868FFF72DFF00BF0837BD4680BD80B534
:101B3C0086B000AF0346B9607A60FB7300237B610B
:101B4C00FFF742FF78617A68B9687869FFF790FF10
:101B5C00024697F90F3011461846FFF75FFF00BF9A
:101B6C001837BD4680BD80B582B000AF0346FB710F
:101B7C0097F907301846FFF735FF00BF0837BD4609
:101B8C0080BD80B582B000AF78607868FFF7A2FFA7
:101B9C00034618460837BD4680BD000080B48BB0A4
:101BAC0000AF7860396000237B6200233B6248E120
:101BBC0001227B6A02FA03F3FB613B681B68FA693A
:101BCC001340BB61BA69FB699A4240F037813B68AC
:101BDC005B68A34A93425ED0A14A934275D8A14A4E
:101BEC00934258D09F4A93426FD89F4A934252D007
:101BFC009D4A934269D89D4A93424CD09B4A93424A
:101C0C0063D89B4A934246D0994A93425DD8122B93
:101C1C002AD8122B59D801A252F823F0A31C000881
:101C2C007D1C00088F1C0008D11C0008D71C000864
:101C3C00D71C0008D71C0008D71C0008D71C0008AC
:101C4C00D71C0008D71C0008D71C0008D71C00089C
:101C5C00D71C0008D71C0008D71C0008D71C00088C
:101C6C00851C0008991C0008824A934213D02CE072
:101C7C003B68DB683B6229E03B68DB6804333B6212
:101C8C0024E03B68DB6808333B621FE03B68DB68A1
:101C9C000C333B621AE03B689B68002B02D1042397
:101CAC003B6213E03B689B68012B05D108233B6228
:101CBC007B68FA691A6109E008233B627B68FA6960
:101CCC005A6103E000233B6200E000BFBB69FF2BBD
:101CDC0001D87B6801E07B6804337B61BB69FF2B17
:101CEC0002D87B6A9B0002E07B6A083B9B003B614D
:101CFC007B691A680F213B6901FA03F3DB431A4035
:101D0C00396A3B6901FA03F31A437B691A603B6831
:101D1C005B6803F08053002B00F09080564B9B695E
:101D2C00554A43F001039361534B9B6903F0010344
:101D3C00BB60BB68514A7B6A9B08023352F8233064
:101D4C00FB607B6A03F003039B000F2202FA03F390
:101D5C00DB43FA681340FB607B68494A93420DD021
:101D6C007B68484A934207D07B68474A934201D12B
:101D7C00022304E0032302E0012300E000237A6A3B
:101D8C0002F0030292009340FA681343FB603B4954
:101D9C007B6A9B080233FA6841F823203B685B6836
:101DAC0003F48013002B06D0384B9A683749BB6973
:101DBC0013438B6006E0354B9A68BB69DB433349B0
:101DCC0013408B603B685B6803F40013002B06D058
:101DDC002E4BDA682D49BB691343CB6006E02B4BC5
:101DEC00DA68BB69DB4329491340CB603B685B680D
:101DFC0003F40033002B06D0244B5A682349BB69EB
:101E0C0013434B6006E0214B5A68BB69DB431F4907
:101E1C0013404B603B685B6803F48033002B06D0A7
:101E2C001A4B1A681949BB6913430B6006E0174B30
:101E3C001A68BB69DB43154913400B607B6A01339D
:101E4C007B623B681A687B6A22FA03F3002B7FF4EF
:101E5C00AFAE00BF00BF2C37BD4680BC704700BF83
:101E6C000000321000003110000022100000211080
:101E7C000000121000001110001002400000014080
:101E8C0000080140000C014000100140000401401A
:101E9C0080B485B000AF78600B467B807B689A6815
:101EAC007B881340002B02D00123FB7301E000233D
:101EBC00FB73FB7B18461437BD4680BC704780B45F
:101ECC0083B000AF78600B467B8013467B707B78C9
:101EDC00002B03D07A887B681A6103E07B881A0494
:101EEC007B681A6100BF0C37BD4680BC704780B45C
:101EFC0085B000AF78600B467B807B68DB68FB604D
:101F0C007A88FB6813401A04FB68D9437B880B4022
:101F1C001A437B681A6100BF1437BD4680BC7047FA
:101F2C0080B586B000AF78607B68002B01D10123AF
:101F3C006CE27B681B6803F00103002B00F08780C8
:101F4C00924B5B6803F00C03042B0CD08F4B5B683B
:101F5C0003F00C03082B12D18C4B5B6803F4803319
:101F6C00B3F5803F0BD1894B1B6803F40033002B76
:101F7C006CD07B685B68002B68D1012346E27B68E0
:101F8C005B68B3F5803F06D1804B1B687F4A43F4F6
:101F9C00803313602EE07B685B68002B0CD17B4B8D
:101FAC001B687A4A23F480331360784B1B68774A9A
:101FBC0023F4802313601DE07B685B68B3F5A02FCE
:101FCC000CD1724B1B68714A43F4802313606F4B26
:101FDC001B686E4A43F4803313600BE06B4B1B6839
:101FEC006A4A23F480331360684B1B68674A23F4F6
:101FFC00802313607B685B68002B13D0FFF7B6FC63
:10200C00386108E0FFF7B2FC02463B69D31A642B37
:10201C0001D90323FAE15D4B1B6803F40033002B59
:10202C00F0D014E0FFF7A2FC386108E0FFF79EFC4B
:10203C0002463B69D31A642B01D90323E6E1534BC7
:10204C001B6803F40033002BF0D100E000BF7B6869
:10205C001B6803F00203002B63D04C4B5B6803F04E
:10206C000C03002B0BD0494B5B6803F00C03082BC3
:10207C001CD1464B5B6803F48033002B16D1434BC9
:10208C001B6803F00203002B05D07B681B69012B36
:10209C0001D00123BAE13D4B1B6823F0F8027B68A9
:1020AC005B69DB00394913430B603AE07B681B69C1
:1020BC00002B20D0364B01221A60FFF757FC3861F9
:1020CC0008E0FFF753FC02463B69D31A022B01D9F7
:1020DC0003239BE12D4B1B6803F00203002BF0D074
:1020EC002A4B1B6823F0F8027B685B69DB002749ED
:1020FC0013430B6015E0264B00221A60FFF736FCE9
:10210C00386108E0FFF732FC02463B69D31A022B18
:10211C0001D903237AE11D4B1B6803F00203002B4A
:10212C00F0D17B681B6803F00803002B3AD07B6866
:10213C009B69002B19D0174B01221A60FFF716FC74
:10214C00386108E0FFF712FC02463B69D31A022BF8
:10215C0001D903235AE10D4B5B6A03F00203002BF8
:10216C00F0D0012000F09AFA1CE00A4B00221A6011
:10217C00FFF7FCFB38610FE0FFF7F8FB02463B6909
:10218C00D31A022B08D9032340E100BF00100240F0
:10219C0000004242800442429E4B5B6A03F0020301
:1021AC00002BE9D17B681B6803F00403002B00F0C3
:1021BC00A6800023FB75974BDB6903F08053002B43
:1021CC000DD1944BDB69934A43F08053D361914B0F
:1021DC00DB6903F08053BB60BB680123FB758E4B3E
:1021EC001B6803F48073002B18D18B4B1B688A4A35
:1021FC0043F480731360FFF7B9FB386108E0FFF715
:10220C00B5FB02463B69D31A642B01D90323FDE0CD
:10221C00814B1B6803F48073002BF0D07B68DB6868
:10222C00012B06D17B4B1B6A7A4A43F001031362E4
:10223C002DE07B68DB68002B0CD1764B1B6A754A52
:10224C0023F001031362734B1B6A724A23F00403DD
:10225C0013621CE07B68DB68052B0CD16D4B1B6A91
:10226C006C4A43F0040313626A4B1B6A694A43F0DD
:10227C00010313620BE0674B1B6A664A23F00103F0
:10228C001362644B1B6A634A23F0040313627B687A
:10229C00DB68002B15D0FFF769FB38610AE0FFF70C
:1022AC0065FB02463B69D31A41F28832934201D94D
:1022BC000323ABE0574B1B6A03F00203002BEED059
:1022CC0014E0FFF753FB38610AE0FFF74FFB0246BF
:1022DC003B69D31A41F28832934201D9032395E02A
:1022EC004C4B1B6A03F00203002BEED1FB7D012B40
:1022FC0005D1484BDB69474A23F08053D3617B6897
:10230C00DB69002B00F08180424B5B6803F00C030F
:10231C00082B61D07B68DB69022B46D13F4B002236
:10232C001A60FFF723FB386108E0FFF71FFB02463A
:10233C003B69D31A022B01D9032367E0354B1B6889
:10234C0003F00073002BF0D17B681B6AB3F5803F60
:10235C0008D1304B5B6823F400327B689B682D49B5
:10236C0013434B602B4B5B6823F474127B68196A24
:10237C007B685B6A0B43274913434B60274B012255
:10238C001A60FFF7F3FA386108E0FFF7EFFA02463C
:10239C003B69D31A022B01D9032337E01D4B1B6871
:1023AC0003F00073002BF0D02FE01C4B00221A60BE
:1023BC00FFF7DCFA386108E0FFF7D8FA02463B6910
:1023CC00D31A022B01D9032320E0124B1B6803F014
:1023DC000073002BF0D118E07B68DB69012B01D175
:1023EC00012313E00B4B5B68FB60FB6803F480324A
:1023FC007B681B6A9A4206D1FB6803F470127B68F7
:10240C005B6A9A4201D0012300E00023184618377A
:10241C00BD4680BD0010024000700040600042428A
:10242C0080B584B000AF786039607B68002B01D137
:10243C000123D0E06A4B1B6803F007033A689A4209
:10244C0010D9674B1B6823F0070265493B6813439F
:10245C000B60634B1B6803F007033A689A4201D088
:10246C000123B8E07B681B6803F00203002B20D02B
:10247C007B681B6803F00403002B05D0594B5B6889
:10248C00584A43F4E06353607B681B6803F008030D
:10249C00002B05D0534B5B68524A43F46053536096
:1024AC00504B5B6823F0F0027B689B684D491343EB
:1024BC004B607B681B6803F00103002B40D07B68EA
:1024CC005B68012B07D1474B1B6803F40033002BCF
:1024DC0015D101237FE07B685B68022B07D1414B50
:1024EC001B6803F00073002B09D1012373E03D4BF3
:1024FC001B6803F00203002B01D101236BE0394B65
:10250C005B6823F003027B685B68364913434B60BE
:10251C00FFF72CFAF8600AE0FFF728FA0246FB688E
:10252C00D31A41F28832934201D9032353E02D4B45
:10253C005B6803F00C027B685B689B009A42EBD1F2
:10254C00274B1B6803F007033A689A4210D2244BBE
:10255C001B6823F0070222493B6813430B60204B96
:10256C001B6803F007033A689A4201D0012332E05A
:10257C007B681B6803F00403002B08D0194B5B68C5
:10258C0023F4E0627B68DB68164913434B607B687D
:10259C001B6803F00803002B09D0124B5B6823F473
:1025AC0060527B681B69DB000E4913434B6000F0E3
:1025BC0021F802460B4B5B681B0903F00F030A4919
:1025CC00CB5C22FA03F3094A1360094B1B681846CB
:1025DC00FFF78AF9002318461037BD4680BD00BFAF
:1025EC0000200240001002400C2F0008BC0000200C
:1025FC00EC00002080B487B000AF0023FB60002308
:10260C00BB6000237B6100237B6000233B611E4B7E
:10261C005B68FB60FB6803F00C03042B02D0082BF7
:10262C0003D027E0194B3B6127E0FB689B0C03F0C0
:10263C000F03174AD35C7B60FB6803F48033002BD9
:10264C0010D0114B5B685B0C03F00103114AD35C97
:10265C00BB607B680D4A02FB03F2BB68B2FBF3F371
:10266C007B6104E07B680C4A02FB03F37B617B69B2
:10267C003B6102E0054B3B6100BF3B6918461C37D0
:10268C00BD4680BC704700BF0010024000127A00AB
:10269C001C2F00082C2F000800093D0080B485B0C9
:1026AC0000AF78600A4B1B680A4AA2FB03235B0A43
:1026BC007A6802FB03F3FB6000BFFB685A1EFA60EA
:1026CC00002BF9D100BF00BF1437BD4680BC70474A
:1026DC00BC000020D34D621080B582B000AF786092
:1026EC007B68002B01D1012341E07B6893F83D30DE
:1026FC00DBB2002B06D17B68002283F83C20786883
:10270C00FEF7A2FF7B68022283F83D207B681A68E3
:10271C007B6804331946104600F056FA7B68012298
:10272C0083F846207B68012283F83E207B680122D7
:10273C0083F83F207B68012283F840207B680122CC
:10274C0083F841207B68012283F842207B680122B8
:10275C0083F843207B68012283F844207B680122A4
:10276C0083F845207B68012283F83D20002318461E
:10277C000837BD4680BD000080B485B000AF7860DE
:10278C007B6893F83D30DBB2012B01D0012335E09F
:10279C007B68022283F83D207B681B68DA687B68C3
:1027AC001B6842F00102DA607B681B68164A934290
:1027BC0009D07B681B68B3F1804F04D07B681B6821
:1027CC00124A934211D17B681B689B6803F0070384
:1027DC00FB60FB68062B10D07B681B681A687B6853
:1027EC001B6842F001021A6007E07B681B681A68DC
:1027FC007B681B6842F001021A60002318461437EC
:10280C00BD4680BC704700BF002C01400004004056
:10281C0080B584B000AF78607B681B68DB68FB60B8
:10282C007B681B681B69BB60BB6803F00203002B51
:10283C0020D0FB6803F00203002B1BD07B681B68C5
:10284C006FF002021A617B6801221A777B681B68A1
:10285C009B6903F00303002B03D0786800F098F910
:10286C0005E0786800F08BF9786800F09AF97B68DD
:10287C0000221A77BB6803F00403002B20D0FB68FE
:10288C0003F00403002B1BD07B681B686FF0040261
:10289C001A617B6802221A777B681B689B6903F4B8
:1028AC004073002B03D0786800F072F905E078686B
:1028BC0000F065F9786800F074F97B6800221A77EB
:1028CC00BB6803F00803002B20D0FB6803F008035F
:1028DC00002B1BD07B681B686FF008021A617B68A9
:1028EC0004221A777B681B68DB6903F00303002B57
:1028FC0003D0786800F04CF905E0786800F03FF9F7
:10290C00786800F04EF97B6800221A77BB6803F0F8
:10291C001003002B20D0FB6803F01003002B1BD0FE
:10292C007B681B686FF010021A617B6808221A77AB
:10293C007B681B68DB6903F44073002B03D0786859
:10294C0000F026F905E0786800F019F9786800F0D5
:10295C0028F97B6800221A77BB6803F00103002B6F
:10296C000CD0FB6803F00103002B07D07B681B68BD
:10297C006FF001021A617868FEF7B8FDBB6803F0CE
:10298C008003002B0CD0FB6803F08003002B07D0D6
:10299C007B681B686FF080021A61786800F06FFA30
:1029AC00BB6803F04003002B0CD0FB6803F0400322
:1029BC00002B07D07B681B686FF040021A617868A7
:1029CC0000F0F8F8BB6803F02003002B0CD0FB6878
:1029DC0003F02003002B07D07B681B686FF02002EC
:1029EC001A61786800F042FA00BF1037BD4680BD0E
:1029FC0080B584B000AF786039600023FB737B68CE
:102A0C0093F83C30012B01D10223B4E07B68012206
:102A1C0083F83C207B68022283F83D207B681B688E
:102A2C009B68BB60BB6823F07703BB60BB6823F477
:102A3C007F43BB607B681B68BA689A603B681B6805
:102A4C00B3F5005F3ED0B3F5005F00F28780B3F5BD
:102A5C00805F00F08680B3F5805F7FD8702B1AD032
:102A6C00702B7BD8602B50D0602B77D8502B3CD060
:102A7C00502B73D8402B58D0402B6FD8302B64D0B0
:102A8C00302B6BD8202B60D0202B67D8002B5CD040
:102A9C00102B5AD062E07B6818683B6899683B68D9
:102AAC005A683B68DB6800F06AF97B681B689B68B6
:102ABC00BB60BB6843F07703BB607B681B68BA687C
:102ACC009A604FE07B6818683B6899683B685A6865
:102ADC003B68DB6800F053F97B681B689A687B687D
:102AEC001B6842F480429A603CE07B6818683B6843
:102AFC0059683B68DB681A4600F0CAF87B681B68AB
:102B0C005021184600F021F92CE07B6818683B68CE
:102B1C0059683B68DB681A4600F0E8F87B681B686C
:102B2C006021184600F011F91CE07B6818683B68BE
:102B3C0059683B68DB681A4600F0AAF87B681B688A
:102B4C004021184600F001F90CE07B681A683B68DC
:102B5C001B681946104600F0F8F803E00123FB73DC
:102B6C0000E000BF7B68012283F83D207B680022D7
:102B7C0083F83C20FB7B18461037BD4680BD80B4E3
:102B8C0083B000AF786000BF0C37BD4680BC704787
:102B9C0080B483B000AF786000BF0C37BD4680BCFA
:102BAC00704780B483B000AF786000BF0C37BD466F
:102BBC0080BC704780B483B000AF786000BF0C3726
:102BCC00BD4680BC7047000080B485B000AF786013
:102BDC0039607B681B68FB607B682B4A934207D08B
:102BEC007B68B3F1804F03D07B68284A934208D1AD
:102BFC00FB6823F07003FB603B685B68FA68134367
:102C0C00FB607B68204A934207D07B68B3F1804F0E
:102C1C0003D07B681D4A934208D1FB6823F44073B0
:102C2C00FB603B68DB68FA681343FB60FB6823F0CE
:102C3C0080023B685B691343FB607B68FA681A602F
:102C4C003B689A687B68DA623B681A687B689A62B0
:102C5C007B680D4A934203D13B681A697B681A63FF
:102C6C007B6801225A617B681B6903F00103002B0E
:102C7C0005D07B681B6923F001027B681A6100BFD9
:102C8C001437BD4680BC7047002C01400004004046
:102C9C0080B487B000AFF860B9607A60FB681B6ADB
:102CAC007B61FB681B6A23F00102FB681A62FB68FC
:102CBC009B693B613B6923F0F0033B617B681B0123
:102CCC003A6913433B617B6923F00A037B617A69A0
:102CDC00BB6813437B61FB683A699A61FB687A694C
:102CEC001A6200BF1C37BD4680BC704780B487B0E9
:102CFC0000AFF860B9607A60FB681B6A7B61FB68A7
:102D0C001B6A23F01002FB681A62FB689B693B612B
:102D1C003B6923F470433B617B681B033A691343A3
:102D2C003B617B6923F0A0037B61BB681B017A6963
:102D3C0013437B61FB683A699A61FB687A691A6292
:102D4C0000BF1C37BD4680BC704780B485B000AF57
:102D5C00786039607B689B68FB60FB6823F07003CC
:102D6C00FB603A68FB68134343F00703FB607B6826
:102D7C00FA689A6000BF1437BD4680BC704780B4B7
:102D8C0087B000AFF860B9607A603B60FB689B6805
:102D9C007B617B6923F47F437B613B681A027B6810
:102DAC001A43BB6813437A6913437B61FB687A69E6
:102DBC009A6000BF1C37BD4680BC704780B485B09C
:102DCC0000AF786039607B6893F83C30012B01D1FF
:102DDC00022341E07B68012283F83C207B680222BD
:102DEC0083F83D207B681B685B68FB607B681B6815
:102DFC009B68BB60FB6823F07003FB603B681B683F
:102E0C00FA681343FB607B681B68FA685A607B683E
:102E1C001B68144A934209D07B681B68B3F1804F3E
:102E2C0004D07B681B68104A93420CD1BB6823F01A
:102E3C008003BB603B685B68BA681343BB607B680C
:102E4C001B68BA689A607B68012283F83D207B6816
:102E5C00002283F83C20002318461437BD4680BC62
:102E6C00704700BF002C01400004004080B483B0C8
:102E7C0000AF786000BF0C37BD4680BC704780B493
:102E8C0083B000AF786000BF0C37BD4680BC704784
:102E9C0070B500260C4D0D4C641BA410A64209D134
:102EAC0000F022F800260A4D0A4C641BA410A6421E
:102EBC0005D170BD55F8043B98470136EEE755F83F
:102ECC00043B98470136F2E7302F0008302F0008FA
:102EDC00302F0008342F000803460244934200D1DF
:102EEC00704703F8011BF9E7F8B500BFF8BC08BC44
:102EFC009E467047F8B500BFF8BC08BC9E467047AC
:102F0C00000000000000000001020304060708098D
:102F1C0002030405060708090A0B0C0D0E0F10100E
:042F2C00010200009E
:042F30003101000863
:042F34000D01000883
:102F38000100000000000000000000000100000087
:102F48000000000000000000010000000000000078
:102F58000000000001000000000000000000000068
:102F6800F40100000000000000000000000801401B
:102F7800000801400008014000080010002000007F
:102F88000A00000001000000050000000300000026
:102F9800020000000500000003000000020000001D
:102FA8000000000005000000000000000300000011
:102FB8000000000002000000000000000500000002
:102FC80000000000030000000000000002000000F4
:102FD80000000000010000000000000002000000E6
:102FE80005000000030000000200000000127A0043
:102FF800000C0140000C0140000C0140000C014095
:10300800000C0140000C01400004000800100020E2
:1030180000400080000000000100000010000000D7
:0430280001000000A3
:040000050800187D5A
:00000001FF
